:060000000A128A1110280B
:10000800FE00030EF0000A08F100831203137F08B4
:10001800F2000A128A159B280A128A111328FA017B
:10002800F801F90183120313ED01EE018313C630C1
:100038008400DE300A128A1584200A128A1183018C
:100048000A128A15A72C83120313C90001300A1655
:100058008A1170240A128A11831203134908840032
:1000680083130008BC00840A0008BD000A168A1120
:1000780024240A128A11023083120313C70086301F
:10008800C6009830C500C50B4728C60B4728C70BC4
:1000980047280000A328861852285328A32849086F
:1000A800840083130008C500840A0008C6004508B8
:1000B800013EC70046080318013E003EC800490833
:1000C800840047088000840A4808800049088400A2
:1000D8000008C500840A0008C6004608803AFF00E8
:1000E80080307F02031D7A2864304502031C7D2876
:1000F8007E2886288312031349088400831380010D
:10010800840A8001831203134908840083130008BA
:10011800BC00840A0008BD000A168A1124240A12A9
:100128008A11023083120313C7004530C600A93074
:10013800C500C50B9D28C60B9D28C70B9D2883129B
:1001480003130618A828A9284F2801300A168A116F
:1001580070240A128A110A168A114E250A128A1167
:10016800023083120313C7008630C6009830C500DA
:10017800C50BBC28C60BBC28C70BBC280000F4283C
:100188008618C728C828F4286D08013EED006E08B7
:100198000318013E003EEE006E08803AFF008030F2
:1001A8007F02031DD92818306D02031CDC28DD28C6
:1001B800E12883120313ED01EE010A168A114E2578
:1001C8000A128A11023083120313C7004530C60091
:1001D800A930C500C50BEE28C60BEE28C70BEE28C4
:1001E800831203130618F928FA28C4280230831248
:1001F8000313C7008630C6009830C500C50B022916
:10020800C60B0229C70B02290000382986180D29B8
:100218000E2938297808013EF80079080318013EAC
:10022800003EF9007908803AFF0080307F02031D04
:100238001F293C307802031C222923292529F8018B
:10024800F9010A168A114E250A128A110230831200
:100258000313C7004530C600A930C500C50B3229B5
:10026800C60B3229C70B32298312031306183D29FE
:100278003E290A2901300A168A1170240A128A11A5
:10028800831203134108840083130008BC00840A06
:100298000008BD00420884000008BE00840A000867
:1002A800BF000A168A1191250A128A110230831298
:1002B8000313C7008630C6009830C500C50B6229F5
:1002C800C60B6229C70B62290000C52986186D294B
:1002D8006E29C5294108840083130008C500840AD3
:1002E8000008C6004508013EC70046080318013E3D
:1002F800003EC8004108840047088000840A480876
:100308008000410884000008C500840A0008C6006F
:100318004608803AFF0080307F02031D9529183077
:100328004502031C98299929A1298312031341081E
:10033800840083138001840A800183120313410817
:10034800840083130008BC00840A0008BD0042082A
:1003580084000008BE00840A0008BF000A168A113B
:1003680091250A128A11023083120313C7004530FF
:10037800C600A930C500C50BBF29C60BBF29C70BCE
:10038800BF29831203130618CA29CB296A29023008
:1003980083120313C7008630C6009830C500C50B0A
:1003A800D329C60BD329C70BD3290000362A8618B0
:1003B800DE29DF29362A4208840083130008C50095
:1003C800840A0008C6004508013EC700460803180D
:1003D800013E003EC8004208840047088000840AA5
:1003E80048088000420884000008C500840A000804
:1003F800C6004608803AFF0080307F02031D062AA7
:100408003C304502031C092A0A2A122A83120313C4
:100418004208840083138001840A80018312031335
:100428004108840083130008BC00840A0008BD004A
:10043800420884000008BE00840A0008BF000A16AB
:100448008A1191250A128A11023083120313C700F8
:100458004530C600A930C500C50B302AC60B302A66
:10046800C70B302A8312031306183B2A3C2ADB29C0
:1004780001300A168A1170240A128A118312031392
:100488004308840083130008BC00840A0008BD00E8
:10049800440884000008BE00840A0008BF000A1649
:1004A8008A11D4250A128A11023083120313C70055
:1004B8004530C600A930C500C50B602AC60B602AA6
:1004C800C70B602A9F2A86186A2A6B2A9F2A430824
:1004D800840083130008C500840A0008C600450884
:1004E800013EC70046080318013E003EC800430805
:1004F800840047088000840A480880004308840074
:100508000008C500840A0008C6004608803AFF00B3
:1005180080307F02031D922A18304502031C952A59
:10052800962A422A83120313430884008313800106
:10053800840A8001422A831203130618A42AA52AD2
:10054800672A023083120313C7008630C60098302A
:10055800C500C50BAD2AC60BAD2AC70BAD2A0000D6
:10056800102B8618B82AB92A102B44088400831344
:100578000008C500840A0008C6004508013EC700F7
:1005880046080318013E003EC80044088400470896
:100598008000840A48088000440884000008C500D8
:1005A800840A0008C6004608803AFF0080307F02AF
:1005B800031DE02A3C304502031CE32AE42AEC2A06
:1005C800831203134408840083138001840A800182
:1005D800831203134308840083130008BC00840AB1
:1005E8000008BD00440884000008BE00840A000812
:1005F800BF000A168A11D4250A128A110230831202
:100608000313C7004530C600A930C500C50B0A2B27
:10061800C60B0A2BC70B0A2B831203130618152BBC
:10062800162BB52A023083120313C7004530C600C3
:10063800A930C500C50B1E2BC60B1E2BC70B1E2BC6
:1006480001300A168A1170240A128A1108008312CE
:10065800031347088039CC004C08D4004708CC0065
:100668004C07CD004D08D600C61F3B2B3C2B3D2B1D
:10067800561456080319412B422B522B560A031DB8
:10068800462B472B4F2B0030C7000030C6000030E8
:10069800C5000030C400C617C7015A2B0030C70078
:1006A8000030C6000030C5000030C4004B08803957
:1006B800CC004C08D500550854060319642B652B4B
:1006C800662B54174B08CC004C07CD004D08D500BD
:1006D800CA1F6F2B702B712B551455080319752BD6
:1006E800762B862B550A031D7A2B7B2B832B003008
:1006F800CB000030CA000030C9000030C800CA175B
:10070800CB018E2B0030CB000030CA000030C9006E
:100718000030C800560855020318932B942BD82B89
:10072800541F972B982B9C2B8030CC004C08D40658
:100738005608CC004C08D7005508CC004C08D60009
:100748005708CC004C08D5004408CC004C08D7000A
:100758004808CC004C08C4005708CC004C08C80016
:100768004508CC004C08D7004908CC004C08C50007
:100778005708CC004C08C9004608CC004C08D700E4
:100788004A08CC004C08C6005708CC004C08CA00E0
:100798004708CC004C08D7004B08CC004C08C700D1
:1007A8005708CC004C08CB00D7015508CC00CD0128
:1007B8004D08CF0056084C02CE00031CCF034F084B
:1007C800803AFF0080307F02031DEC2B1A304E0266
:1007D800031CEF2BF02B2D2C831203134708460420
:1007E80045044404031DF92BFB2B0130FC2B00307E
:1007F800CC004C08D7000030C7000030C6000030DD
:10080800C5000030C4005508CC004C08D600352C73
:10081800571C0F2C102C192C5708CC0003104C0C0B
:100828000138CD004D08D7001B2C0310D70C441CF1
:100838001E2C1F2C202CD7170130CC00470DC70CBD
:10084800C60CC50CC40CCC0B222C0130CC004C08B7
:10085800D6078312031355085602031C342C352C73
:100868000C2C541B382C392C842C5608031D3D2C79
:100878003E2C472C0030C7000030C6000030C500B1
:100888000030C400B22D4808C407490803110318F2
:10089800013E0319502CC5074A0803110318013EED
:1008A8000319572CC6074B0803110318013E0319F7
:1008B8005E2CC707471C612C622C382D571C652CF1
:1008C800662C6F2C5708CC0003104C0C0138CD0057
:1008D8004D08D700712C0310D70C441C742C752CB0
:1008E800762CD7170130CC00470DC70CC60CC50CA9
:1008F800C40CCC0B782C0130CC004C08D607382D12
:100908004708803AFF004B08803A7F02031D962C67
:100918004A084602031D962C49084502031D962CD9
:10092800480844020318992C9A2CF22CFF30CC006A
:10093800FF30CD00FF30CE00FF30CF004808D00098
:100948004908D1004A08D2004B08D3004408D00215
:100958004508031C450FB12CB22CD1024608031CD4
:10096800460FB72CB82CD2024708031C470FBD2CE2
:10097800BE2CD3025008CC0751080318510FC52CC0
:10098800C62CCD0752080318520FCB2CCC2CCE07FF
:1009980053080318530ACF074F08C7004E08C6006C
:1009A8004D08C5004C08C4008030CC004C08D40663
:1009B800D709D70A5708031DE22CE32C002D013074
:1009C800C407003003180130C50700300318013090
:1009D800C607003003180130C707002D4808C402B5
:1009E8004908031C490FC5024A08031C4A0FC602DE
:1009F8004B08031C4B0FC702470846044504440430
:100A0800031D072D082D342D5708031D0C2D0D2D02
:100A1800342D0030C7000030C6000030C50000305B
:100A2800C400B22D0130CC000310C40DC50DC60D95
:100A3800C70DCC0B182DD71F222D232D242D441480
:100A4800571C272D282D2B2D0314D70D2D2D0310C2
:100A5800D70D56080319312D322D342D0130D60209
:100A6800C61F372D382D162DD501D71F3C2D3D2DEE
:100A78004B2D57087F390319422D432D462DD5019B
:100A8800D50A4B2D441C492D4A2D4B2D432D550875
:100A980003194F2D502D842D0130C4070030031841
:100AA8000130C507003003180130C60700300318AD
:100AB8000130C707471C612D622D842D4408CC00E6
:100AC8004508CD004608CE004708CF000130D000C9
:100AD8004F0DCF0CCE0CCD0CCC0CD00B6C2D4F0881
:100AE800C7004E08C6004D08C5004C08C400560A89
:100AF80003197F2D802D842D0130CC004C08D6079A
:100B0800560A0319882D892D8E2D5608031D8D2D03
:100B18008E2D9C2D0030C7000030C6000030C50067
:100B28000030C4005608031D9A2D9B2D9C2DD4011E
:100B3800561C9F2DA02DA22DC617A62D7F30CC00A8
:100B48004C08C6055608CC0003104C0CCD004D08C7
:100B5800C700D41FB02DB12DB22DC71708008312BE
:100B6800031331088039B2003208BB003108B200E3
:100B78003207B3003308C200B01FC32DC42DC52DE2
:100B8800421442080319C92DCA2DDA2D420A031D41
:100B9800CE2DCF2DD72D0030B1000030B000003061
:100BA800AF000030AE00B017B101E22D0030B10047
:100BB8000030B0000030AF000030AE002D088039A2
:100BC800B2003208BB062D08B2003207B300330862
:100BD800C300AC1FF02DF12DF22D43144308031967
:100BE800F62DF72D072E430A031DFB2DFC2D042E91
:100BF8000030AD000030AC000030AB000030AA007F
:100C0800AC17AD010F2E0030AD000030AC00003045
:100C1800AB000030AA002D082C042B042A04031D65
:100C2800162E172E302E0030B1000030B0000030E4
:100C3800AF000030AE008030B0047F30B1043B0814
:100C4800B2003208B1043108AD003008AC002F08FA
:100C5800AB002E08AA008F2F4208031D342E352E14
:100C68003E2E0030AD000030AC000030AB0000304C
:100C7800AA008F2F4208B200B3013308B500430819
:100C88003202B400031CB50334087F3EBC003508AB
:100C98000318013E003EBD003108BA003008B90013
:100CA8002F08B8002E08B7000030B1000030B0009F
:100CB8000030AF000030AE000030C1000030C0008E
:100CC8000030BF000030BE00C301B42E4308031932
:100CD8006E2E6F2E8F2E0130B2000310B70DB80D97
:100CE800B90DBA0DB20B712E0130B2000310AE0D62
:100CF800AF0DB00DB10DB20B7A2EC11F842E852E0B
:100D0800862E2E140130B2000310BE0DBF0DC00D8B
:100D1800C10DB20B882E2D083A02031D9D2E2C08FA
:100D28003902031D9D2E2B083802031D9D2E2A080B
:100D38003702031CA02EA12EB02E41172A08B70295
:100D48002B08031C2B0FB8022C08031C2C0FB9020C
:100D58002D08031C2D0FBA020130B2003208C30758
:100D68001A304302031CB92EBA2E6A2E3A083904E7
:100D7800380437040319C12EC22EE12E3E14E12E89
:100D88000130B2000310AE0DAF0DB00DB10DB20BB6
:100D9800C62EC11FD02ED12ED22E2E140130B20055
:100DA8000310BE0DBF0DC00DC10DB20BD42EFF3008
:100DB800BC070318BD0AFF30BD07B01FE42EE52E9F
:100DC800C42EC301C11FE92EEA2E062FFF303E05AF
:100DD800B200FF303F05B300FF304005B4007F305C
:100DE8004105B50035083404330432040319FD2ED7
:100DF800FE2E012FC301C30A062F2E1C042F052F18
:100E0800062FFE2E430803190A2F0B2F3C2F013003
:100E1800AE07003003180130AF0700300318013067
:100E2800B007003003180130B107311C1C2F1D2FEB
:100E38003C2F2E08B2002F08B3003008B400310848
:100E4800B5000130B600350DB50CB40CB30CB20CBE
:100E5800B60B272F3508B1003408B0003308AF00AF
:100E68003208AE000130BC070318BD0A0030BD07C8
:100E78003D08803AFF0080307F02031D452FFF3078
:100E88003C02031C482F492F572FFF3083120313AE
:100E9800BC000030BD000030B1000030B0000030B0
:100EA800AF000030AE00831203133D08803AFF0004
:100EB80080307F02031D622F01303C020318652F2A
:100EC800662F732F83120313BC01BD010030B100DC
:100ED8000030B0000030AF000030AE00BB0183121C
:100EE80003133C08B2003208C200421C7C2F7D2F3D
:100EF8007F2FB017832F7F30B2003208B005420829
:100F0800B2000310320CB3003308B1003B08B20042
:100F18003208B104272E0800831203136608AB00B9
:100F28006508AA006408A9006308A8006B30F700E8
:100F38007708AC000A168A1151270A128A118312FF
:100F48000313EC1FA82FA92FB22F0030E6000030A2
:100F5800E5000030E4000030E300EB2F00306C02C5
:100F68001D3003196B02031CBA2FBB2FBC2FEB2FAC
:100F78006608DB006508DA006408D9006308D80051
:100F88000A128A150C210A128A11831203135B08AC
:100F9800F6005A08F5005908F4005808F300013023
:100FA8000A128A152C220A128A1176088312031350
:100FB800EA007508E9007408E8007308E7006A08A1
:100FC800E6006908E5006808E4006708E30008002F
:100FD800F400F3013A3074020318F32FF42FFC2FB6
:100FE80030307402031CF92FFA2FFC2FF301F30A97
:040FF800730C08006E
:1010000008308A000408840A82070034013400345E
:101010000A34003464340034E834033410342734A0
:1010200048346F342E343A3420342534303432345A
:1010300064343A3425343034323464343A34253428
:1010400030343234643420342034203400342034BA
:101050002034203420342034253430343234643485
:101060003A3425343034323464342034203420345B
:10107000203420340034543465346D3470342E34CC
:1010800020344434653473343A34203425343034D5
:1010900032346434DF346334203420340034483450
:1010A0006F3472346134723469346F3420344134B3
:1010B0007434753461346C343A34003453347434D9
:1010C0006134723474342034743469346D3465346A
:1010D0003A340034543465342E343A3420342534D0
:1010E000303432346434DF34633400345334743491
:1010F0006F3470342034743469346D3465343A3468
:021100000034B9
:1011080064008001840A0406031900340406852853
:10111800831203131F1594280330F300F30B92284E
:10112800831203131F1999289A28902808000B1D69
:101138009E289F280129C23081000130831603139D
:10114800CC070318CD0A0030CD074D08803AFF00C0
:1011580080307F02031DB2287E304C02031CB52864
:10116800B628002983160313CC01CD010130CA0724
:101178000318CB0A0030CB074B08803AFF008030B9
:101188007F02031DC9283C304A02031CCC28CD2805
:10119800002983160313CA01CB010130F80703188D
:1011A800F90A0030F9077908803AFF0080307F0299
:1011B800031DE0283C307802031CE328E4280029BA
:1011C800F801F901013083120313ED070318EE0A41
:1011D8000030EE076E08803AFF0080307F02031D62
:1011E800F72818306D02031CFA28FB2800298312FF
:1011F8000313ED01EE0100290B117208831203138A
:10120800FF0071088A00700E8300FE0E7E0E090032
:101218000310831203135A0D5B0DDC005C08E20017
:101228006208031D1829192922290030DB00003023
:10123800DA000030D9000030D80087295808DC00CF
:101248005908DD005A08DE005B08DF001F30031074
:10125800DF0CDE0CDD0CDC0CFF3E031D2B295C08CB
:10126800E0006008E100DA17FF30D805FF30D90543
:10127800FF30DA050030DB059630E202E21F45292F
:10128800462960296208803A973E03184C294D295F
:101298004E29192901300310DB0CDA0CD90CD80CB3
:1012A800FF3E031D4F290130DC005C08E207031DE7
:1012B8005E295F294E29772920306202031C65299F
:1012C8006629722919290130DC000310D80DD90DBF
:1012D800DA0DDB0DDC0B69290130E2026208031D1F
:1012E800762977296729610803197B297C298729A9
:1012F800D809D909DA09DB09D80A0319D90A03195F
:10130800DA0A0319DB0A08007A108312031308119A
:1013180088110812881208138813831603130810FB
:1013280088100811881108128812343083120313A8
:10133800A200F130A100A10B9F29A20B9F29033025
:101348000A168A1170240A128A15073083120313A9
:10135800A2007C30A100A10BAF29A20BAF2900008D
:1013680003300A168A1170240A128A15073083126C
:101378000313A2007C30A100A10BC029A20BC02935
:10138800000003300A168A1170240A128A150730E1
:1013980083120313A2007C30A100A10BD129A20B58
:1013A800D129000002300A168A1170240A128A15FF
:1013B800073083120313A2007C30A100A10BE2299D
:1013C800A20BE229000028300A168A1170240A129A
:1013D8008A15413083120313A200ED30A100A10B3E
:1013E800F329A20BF329F8290C300A168A11702464
:1013F8000A128A15413083120313A200ED30A100AE
:10140800A10B042AA20B042A092A01300A168A1100
:1014180070240A128A15413083120313A200ED309A
:10142800A100A10B152AA20B152A1A2A06300A16A2
:101438008A1170240A128A15413083120313A200FC
:10144800ED30A100A10B262AA20B262A2B2A080080
:1014580083120313A40024080319332A342A482AC0
:10146800F61F372A382A482A7309A6007409A700E4
:101478007509A8007609A900A60A0319A70A03197D
:10148800A80A0319A90A502A7608A9007508A8000D
:101498007408A7007308A60076087504740473041A
:1014A800031D572A582A612A0030F6000030F5003B
:1014B8000030F4000030F300E72A9630A00020083E
:1014C800A500732A0130A0002008A50701300310E9
:1014D800A90CA80CA70CA60CFF3E031D6B2AFE3016
:1014E8002905031D782A792A662A952A0130A00041
:1014F8002008A5070130A607003003180130A70708
:10150800003003180130A807003003180130A9077C
:1015180001300310A90CA80CA70CA60CFF3E031D54
:101528008D2AFF302905031D9A2A9B2A7A2AA72A81
:101538000130A5020130A0000310A60DA70DA80DCB
:10154800A90DA00BA02AA81BAA2AAB2AB12A0230EF
:1015580025020318B02AB12A9C2A2518B42AB52ACC
:10156800BD2AFF30A605FF30A7057F30A805FF304C
:10157800A9050310A50C2508A000A101A201A3013B
:1015880018300310A00DA10DA20DA30DFF3E031DE1
:10159800C52A2008A6042108A7042208A8042308AD
:1015A800A90424080319D92ADA2ADF2AF61FDD2A12
:1015B800DE2ADF2AA9172908F6002808F5002708D7
:1015C800F4002608F3000800831603132B0883127F
:1015D8000313E600831603132A0883120313E50096
:1015E80083160313290883120313E40083160313D5
:1015F800280883120313E3000A128A1190270A129B
:101608008A1583120313660883160313A300831233
:101618000313650883160313A200831203136408D7
:1016280083160313A100831203136308831603139D
:10163800A0002B08A7002A08A6002908A50028084A
:10164800A4000A168A115D260A128A158316031346
:101658002308AF002208AE002108AD002008AC0026
:101668002F0883120313C700831603132E0883124F
:101678000313C600831603132D0883120313C50032
:10168800831603132C0883120313C4008316031351
:101698002B0883120313CB00831603132A08831223
:1016A8000313CA0083160313290883120313C900FE
:1016B80083160313280883120313C8000A128A1119
:1016C8002B230A128A158312031347088316031360
:1016D800AB0083120313460883160313AA00831270
:1016E8000313450883160313A90083120313440840
:1016F80083160313A8002B0883120313E60083162E
:1017080003132A0883120313E50083160313290819
:1017180083120313E40083160313280883120313A8
:10172800E3000A128A1190270A128A1583120313FA
:10173800660883160313AB00831203136508831628
:101748000313AA0083120313640883160313A90062
:1017580083120313630883160313A8000800831277
:1017680003132308803AF3002708803A7302031D05
:10177800BF2B260822020318C22BC32B502C83121E
:1017880003132308803AF3006E08803A7302031D9E
:10179800CF2B6D0822020318D22BD32B0A2C8312CD
:1017A80003136E08803AF3002708803A7302031D7A
:1017B800DF2B26086D020318E22BE32BEA2B0130FE
:1017C80083120313A0000030A100A62C8312031378
:1017D80027086E06031DF22B26086D06031DF52B40
:1017E800F62B052C7908803AF3002908803A730211
:1017F800031D002C280878020318032C042C052C40
:10180800E32B83120313A001A101A62C8312031357
:1018180023086E06031D122C22086D06031D152CC5
:10182800162C052C2508803AF3007908803A7302B3
:10183800031D202C780824020318232C242CA62C02
:10184800831203136E08803AF3002708803A730264
:10185800031D302C26086D020318332C342C352C2C
:10186800E32B8312031327086E06031D3D2C26085D
:101878006D06031D402C412C052C7908803AF30095
:101888002908803A7302031D4B2C28087802031894
:101898004E2C4F2C052CE32B831203132308803A7C
:1018A800F3006E08803A7302031D5C2C6D08220257
:1018B80003185F2C602C612CE32B8312031323087D
:1018C8006E06031D692C22086D06031D6C2C6D2CF9
:1018D8007C2C2508803AF3007908803A7302031DAE
:1018E800772C7808240203187A2C7B2C052CE32B00
:1018F8006E08803AF3002708803A7302031D862C8D
:1019080026086D020318892C8A2C8B2CE32B831252
:10191800031327086E06031D932C26086D06031D66
:10192800962C972C052C7908803AF3002508803AE4
:101938007302031DA12C240878020318A42CA52CDB
:10194800052CE32B08005530831603138100A030C3
:101958008B000130850013308600870188018901DA
:101968000130831203139F008E30831603139F00E8
:101978000A128A1588210A128A1519308316031348
:10198800C4000030C500BC01BD01BE01BF01C001DB
:10199800C101C201C3010A128A158C200A128A15D4
:1019A800831203131E0883160313B000B101300815
:1019B800B100B0011E083007F30031080318310ADE
:1019C800F400F501F41BF5037508F60001300A125E
:1019D8008A152C220A128A15760883120313B1007D
:1019E8007508B0007408AF007308AE004030AD0051
:1019F8000230AC00F130AB00AA30AA000A128A11FA
:101A0800B3250A128A15831203132D08CB002C085C
:101A1800CA002B08C9002A08C800C230C7004830CD
:101A2800C6000030C5000030C4000A128A112B23FA
:101A38000A128A1583120313470883160313B70083
:101A480083120313460883160313B6008312031385
:101A5800450883160313B50083120313440883163D
:101A68000313B4003708AB003608AA003508A900EC
:101A78003408A8000A128A15E8220A128A15831661
:101A880003132B08BB002A08BA002908B900280844
:101A9800B8003B0883120313DB00831603133A08CC
:101AA80083120313DA00831603133908831203130E
:101AB800D90083160313380883120313D8000A12B7
:101AC8008A150C210A128A158312031359088316E2
:101AD8000313C90083120313580883160313C8009D
:101AE8000A168A11A5270A128A15831203130618E3
:101AF8007E2D7F2DA52DBC3083160313B000300832
:101B080083120313C100BE3083160313B1003108DA
:101B180083120313C200C03083160313B2003208C5
:101B280083120313C300C23083160313B3003308B0
:101B380083120313C400C4300A128A1127200A1220
:101B48008A1583120313061AAA2DAB2D272E831686
:101B580003134408FB3EB00045080318013EFF3E4E
:101B6800B1004908803AB2003108803A3202031DB8
:101B7800BF2D300848020318C22DC32D0B2E831623
:101B88000313450883120313A100831603134408A3
:101B980083120313A000831603133D088312031353
:101BA800A300831603133C0883120313A2008316B1
:101BB80003133F0883120313A500831603133E087B
:101BC80083120313A400831603134108831203131B
:101BD800A70083160313400883120313A600831675
:101BE8000313430883120313A9008316031342083F
:101BF80083120313A8000A128A15B3230A128A153E
:101C08008312031307082006FE392006870083166F
:101C180003134408053EB00045080318013E003E82
:101C2800B1003108803AB2004908803A3202031DF7
:101C38001F2E480830020318222E232ECF2C831281
:101C480003130710CF2C0710CF2C0A128A11102863
:101C580083120313BB002A30B0003008B300E92F09
:101C680025303A060319392E3A2E462E3A08B00086
:101C78003B0884003008831380000130B00030082E
:101C8800BB07E92FB801B901B7014F2E371501304D
:101C9800B0003008A907290884000A128A15002014
:101CA8000A128A15B000B1013108003A03195D2EF5
:101CB800622E3008303A03194A2E622E2908840011
:101CC8000A128A1500200A128A150A128A11EC27AC
:101CD8000A128A15031C712E722EB22E8312031358
:101CE800B801B9010A30F3000030F400831203137D
:101CF8003908F6003808F5000A168A1145240A1230
:101D08008A15740883120313B9007308B8002908E8
:101D180084000A128A1500200A128A15D03EB000E3
:101D2800FF3003180030B1003008B8070318B90AAB
:101D38003108B9070130B0003008A9072908840024
:101D48000A128A1500200A128A150A128A11EC272B
:101D58000A128A150318B12EB22E762E013083127C
:101D68000313A907FF30290784000A128A150020E7
:101D78000A128A15BA00B000B1013108003A0319F5
:101D8800C62EE92F3008003A0319FB2F643A0319CD
:101D9800D12E0D3A0319D12EE92F3308840083136D
:101DA8000008B500840A0008B6000230B000300808
:101DB800B307B61FE02EE12EEA2E0330B00030083C
:101DC800B704B509B609B50A0319B60ABA01BA0AB9
:101DD8003A08B0003007013E84000A128A15002034
:101DE8000A128A15B1000A128A1500200A128A15E9
:101DF800B20032083602031D032F310835020318DA
:101E0800062F072F082F122F0130B0003008BA070D
:101E180005303A06031D112F122FEC2E380839040D
:101E28000319172F182F242F3708033903191D2FCB
:101E38001E2F242FFF30B8070318B90AFF30B9073F
:101E48003908803A803C031D2B2F38083A020318C2
:101E58002E2F2F2F3B2F831203133A08B000B10106
:101E68003008B8023108031CB903B9023F2F8312A6
:101E78000313B801B901371D422F432F722F3708BA
:101E880003390319482F492F542F2D30B0003B0830
:101E980084003008831380000130B0003008BB078D
:101EA800380839040319592F5A2FA02F3030B000A1
:101EB8003B0884003008831380000130B0003008EC
:101EC800BB07FF30B8070318B90AFF30B90738084D
:101ED8003904031D702F712F5A2FA02F3808390489
:101EE8000319772F782F8F2F2030B0003B088400FC
:101EF8003008831380000130B0003008BB07FF3082
:101F0800B8070318B90AFF30B90738083904031DA0
:101F18008E2F8F2F782F370803390319942F952F79
:101F2800A02F2D30B0003B088400300883138000B8
:101F38000130B0003008BB073A08B0003008B400E0
:101F4800E02F0A30A3000030A4003408B0003007A6
:101F5800013E84000A128A1500200A128A15F3002D
:101F68000A128A1500200A128A15F4003608F600AB
:101F78003508F5000A168A1117260A128A157408F8
:101F880083120313A6007308A5000A168A111225E6
:101F98000A128A15831203132308303EB100310850
:101FA800BA003A08B0003B08840030088313800068
:101FB8000130B0003008BB07FF30B0003008B4076C
:101FC800340A031DE82FE92FA52F0130A907FF3098
:101FD800290784000A128A1500200A128A15B000FF
:101FE8003008BA003A08031DFA2FFB2F342E3B089D
:081FF80084008313800108003E
:1028480083120313A101A10A01300A168A11A124D7
:102858000A168A11363083120313BE003E08A900F7
:102868003D08AB003C08AA00CE300A128A152C2677
:102878000A168A11CE300A168A11D9240A168A1124
:10288800080083120313A001A101731C4C2C4D2CCA
:10289800552C750883120313A0070318A10A76089C
:1028A800A10701300310F50DF60DFF3E031D562C50
:1028B80001300310F40CF30CFF3E031D5D2C73086C
:1028C8007404031D682C692C492C831203132108F6
:1028D800F4002008F300080083120313A0007A1004
:1028E8002008F60004300310F60CFF3E031D772C79
:1028F80076080A168A11FD260A168A11831203130E
:1029080020080A168A11FD260A168A118312031353
:1029180020030319902C912C972C02302006031DBC
:10292800962C972CA02C0330F7009730F600F60B66
:102938009B2CF70B9B2CA02C080083120313A400DC
:10294800C52C2408BF3E0A168A1170240A168A115B
:10295800D82C2408933E0A168A1170240A168A1164
:10296800D82C2408D33E0A168A1170240A168A1114
:10297800D82C24087F3E0A168A1170240A168A1158
:10298800D82C2108A200A3012308003A0319CD2C52
:10299800BD2C2208023A0319A52C013A0319AD2CC3
:1029A800073A0319B52CBD2C080083120313A100A4
:1029B800A0017A14062D20082107F6007608840065
:1029C8000008F70004300310F70CFF3E031DE72C46
:1029D80077080A168A11FD260A168A11831203132C
:1029E80020082107F60076088400831300080A16D9
:1029F8008A11FD260A168A110130F600760883121C
:102A08000313A00720082107F60076088400831323
:102A18000008031D102D112DDF2C0800831203134D
:102A2800230824040319192D1A2D492DA801A80AD1
:102A3800282D01300310A30DA40DFF3E031D1E2DEC
:102A48000130A7002708A807A41F2B2D2C2D1D2D0A
:102A580024082602031D322D23082502031C352DC8
:102A6800362D3C2D2308A5022408031CA603A60224
:102A780001300310A40CA30CFF3E031D3D2D0130B3
:102A8800A802031D482D492D2C2D2608A400250831
:102A9800A300080083120313A101A10A01300A163A
:102AA8008A11A1240A168A114A3083120313BC0022
:102AB8003C08A900CE300A128A152C260A168A115B
:102AC800CE300A168A11D9240A168A1102308312C6
:102AD8000313BC003C08A10001300A168A11A12486
:102AE8000A168A11223083120313BC003C08A9007D
:102AF8006E08AB006D08AA007908AD007808AC0034
:102B0800CE300A128A152C260A168A11CE300A16D9
:102B18008A11D9240A168A11080083120313A10105
:102B2800A10A01300A168A11A1240A168A115930FD
:102B380083120313C0004008A900CE300A128A1578
:102B48002C260A168A11CE300A168A11D9240A169A
:102B58008A11023083120313C0004008A10001301B
:102B68000A168A11A1240A168A1122308312031325
:102B7800C0004008A9003D08AB003C08AA003F0877
:102B8800AD003E08AC00CE300A128A152C260A1673
:102B98008A11CE300A168A11D9240A168A11080019
:102BA80083120313A101A10A01300A168A11A12474
:102BB8000A168A11713083120313C0004008A90055
:102BC800CE300A128A152C260A168A11CE300A1619
:102BD8008A11D9240A168A11023083120313C000FD
:102BE8004008A10001300A168A11A1240A168A1188
:102BF800223083120313C0004008A9003D08AB002F
:102C08003C08AA003F08AD003E08AC00CE300A12CE
:102C18008A152C260A168A11CE300A168A11D9244A
:102C28000A168A11080083120313A101A20173086E
:102C380074040319202E212E582EA001A00A2F2E2D
:102C480001300310F30DF40DFF3E031D252E013056
:102C5800F7007708A007F41F322E332E242E0130F8
:102C68000310A10DA20DFF3E031D342E7408760239
:102C7800031D402E73087502031C432E442E4B2E51
:102C88007308F5027408031CF603F60221140130D8
:102C98000310F40CF30CFF3E031D4C2E0130A00270
:102CA800031D572E582E332E2208F4002108F30056
:102CB8000800803083160313A30627088312031322
:102CC800C70083160313260883120313C60083164E
:102CD8000313250883120313C5008316031324085E
:102CE80083120313C40083160313230883120313E8
:102CF800CB0083160313220883120313CA0083161A
:102D08000313210883120313C90083160313200831
:102D180083120313C8000A128A112B230A168A1178
:102D280083120313470883160313A30083120313A4
:102D3800460883160313A20083120313450883165B
:102D48000313A10083120313440883160313A0007E
:102D580008000030831203132005F300003021051A
:102D6800F40080302205F5007F302305F600760850
:102D7800750474047304031DC22EC32ECB2E0030B9
:102D8800A3000030A2000030A1000030A0000030F5
:102D98002405F30000302505F40080302605F500F1
:102DA8007F302705F6007608750474047304031D44
:102DB800DE2EDF2EE72E0030A7000030A600003000
:102DC800A5000030A40027082306031DF52E2608B9
:102DD8002206031DF52E25082106031DF52E2408BD
:102DE80020060319F82EF92EFB2E0310FC2E0314CF
:102DF8000800F5007A18012F052F83120313081510
:102E0800082F83120313081175080139F300F30E14
:102E180008087306EF39730688007508F300031075
:102E2800730C0139F400F40EF40D08087406DF3948
:102E3800740688007508F30002300310F30CFF3E97
:102E4800031D212F73080139F400F40EF40DF40D5D
:102E580008087406BF39740688007508F300033043
:102E68000310F30CFF3E031D342F73080139F400DF
:102E7800F40CF40C080874067F397406880088116D
:102E880000008312031388150000831203138811AE
:102E98002130F300F30B4E2F0800831203132B0885
:102EA800A3002A08A2002908A1002808A0000030D1
:102EB800A7000030A6000030A5000030A4000A16C4
:102EC8008A11AD260A168A11031C6B2F6C2F752FD9
:102ED800831203132C08840083138001840A800161
:102EE800A42F831203132B087F39AD00AE01031002
:102EF800AD0DAE0D2C0884002D0883138000840AC4
:102F08002E0880002A0D2A0D0139AD00AE012C08CB
:102F180084002D088004840A2E0880042C0884006C
:102F280082308007840F00080318000AFF00FF3072
:102F38007F07800084032B0880393F38AB00AA1331
:102F4800080083120313A101A10A01300A168A118D
:102F5800A1240A168A110B3083120313BC003C0803
:102F6800A9006E08AB006D08AA007908AD007808C2
:102F7800AC00831603134B0883120313AF008316A8
:102F880003134A0883120313AE00CE300A128A15BF
:102F98002C260A168A11CE300A168A11D9240A1646
:102FA8008A11023083120313BC003C08A1000130CF
:102FB8000A168A11A1240A168A116530831203138E
:102FC800BC003C08A90083160313490883120313A5
:102FD800AB0083160313480883120313AA00CE30EC
:102FE8000A128A152C260A168A11CE300A168A1158
:082FF800D9240A168A11080011
:02400E00F13F80
:00000001FF
