:060000000A128A1110280B
:10000800FE00030EF0000A08F100831203137F08B4
:10001800F2000A128A1599280A128A111328FA017D
:10002800F801F90183120313ED01EE018313C630C1
:100038008400DE300A168A11E2230A128A1183012B
:100048000A128A15A52C83120313C90001300A125B
:100058008A11CF270A128A118312031349088400D0
:1000680083130008BC00840A0008BD000A168A1120
:10007800F9230A128A11023083120313C7000430CD
:10008800C600B930C500C50B4728C60B4728C70BA3
:1000980047284E28A728023083120313C7000430CC
:1000A800C600B930C500C50B5728C60B5728C70B63
:1000B80057285E2883120313490884008313000815
:1000C800BC00840A0008BD000A168A11F9230A1226
:1000D8008A11831203138618722873288A284908FC
:1000E800840083130008C500840A0008C600450878
:1000F800013EC70046080318013E003EC8004908F3
:10010800840047088000840A480880004908840061
:1001180083130008C500840A0008C6004608803A10
:10012800FF0080307F02031D9B2864304502031CBA
:100138009E289F28A7288312031349088400831345
:100148008001840A8001831203130618AC28AD28A5
:100158004F2801300A128A11CF270A128A110A166B
:100168008A11F2240A128A11023083120313C7007B
:100178000430C600B930C500C50BC028C60BC0285E
:10018800C70BC028C728FB28023083120313C700F7
:100198000430C600B930C500C50BD028C60BD0281E
:1001A800C70BD028D7280A168A11F2240A128A11F6
:1001B800831203138618E128E228EA286D08013E15
:1001C800ED006E080318013E003EEE006E08803A0E
:1001D800FF0080307F02031DF32818306D02031CD6
:1001E800F628F728FB2883120313ED01EE0183128A
:1001F8000313061800290129C828023083120313A3
:10020800C7000430C600B930C500C50B0929C60BA4
:100218000929C70B0929102942290230831203131F
:10022800C7000430C600B930C500C50B1929C60B74
:100238001929C70B192920290A168A11F2240A122A
:100248008A118312031386182A292B29332978083F
:10025800013EF80079080318013E003EF9007908CC
:10026800803AFF0080307F02031D3C293C30780231
:10027800031C3F2940294229F801F901831203137D
:10028800061847294829112901300A128A11CF274F
:100298000A128A1183120313410884008313000889
:1002A800BC00840A0008BD00420884000008BE00A3
:1002B800840A0008BF000A168A1135250A128A1115
:1002C800023083120313C7000430C600B930C500DA
:1002D800C50B6C29C60B6C29C70B6C297329D3294C
:1002E800023083120313C7000430C600B930C500BA
:1002F800C50B7C29C60B7C29C70B7C298329831253
:1003080003134108840083130008BC00840A000812
:10031800BD00420884000008BE00840A0008BF002F
:100328000A168A1135250A128A11831203138618B0
:100338009E299F29B6294108840083130008C50017
:10034800840A0008C6004508013EC700460803188D
:10035800013E003EC8004108840047088000840A26
:10036800480880004108840083130008C500840AF7
:100378000008C6004608803AFF0080307F02031D4F
:10038800C72918304502031CCA29CB29D32983124F
:1003980003134108840083138001840A80018312B7
:1003A80003130618D829D929742902308312031394
:1003B800C7000430C600B930C500C50BE129C60B1B
:1003C800E129C70BE129E829482A023083120313DF
:1003D800C7000430C600B930C500C50BF129C60BEB
:1003E800F129C70BF129F829831203134108840066
:1003F80083130008BC00840A0008BD00420884007A
:100408000008BE00840A0008BF000A168A113525B4
:100418000A128A11831203138618132A142A2B2A04
:100428004208840083130008C500840A0008C60037
:100438004508013EC70046080318013E003EC800B3
:100448004208840047088000840A4808800042085F
:10045800840083130008C500840A0008C600460803
:10046800803AFF0080307F02031D3C2A3C30450261
:10047800031C3F2A402A482A831203134208840097
:1004880083138001840A80018312031306184D2AFE
:100498004E2AE92901300A128A11CF270A128A1135
:1004A800831203134308840083130008BC00840AE2
:1004B8000008BD00440884000008BE00840A000843
:1004C800BF000A168A1178250A128A11023083128F
:1004D8000313C7000430C600B930C500C50B722A23
:1004E800C60B722AC70B722A792AD92A02308312BC
:1004F8000313C7000430C600B930C500C50B822AF3
:10050800C60B822AC70B822A892A8312031343083F
:10051800840083130008BC00840A0008BD00440856
:1005280084000008BE00840A0008BF000A168A1169
:1005380078250A128A11831203138618A42AA52A79
:10054800BC2A4308840083130008C500840A0008F5
:10055800C6004508013EC70046080318013E003E94
:10056800C8004308840047088000840A48088000BF
:100578004308840083130008C500840A0008C600E5
:100588004608803AFF0080307F02031DCD2A1830CC
:100598004502031CD02AD12AD92A831203134308FF
:1005A800840083138001840A8001831203130618D0
:1005B800DE2ADF2A7A2A023083120313C7000430A6
:1005C800C600B930C500C50BE72AC60BE72AC70B1A
:1005D800E72AEE2A4E2B023083120313C700043099
:1005E800C600B930C500C50BF72AC60BF72AC70BDA
:1005F800F72AFE2A83120313430884008313000892
:10060800BC00840A0008BD00440884000008BE003D
:10061800840A0008BF000A168A1178250A128A116E
:10062800831203138618192B1A2B312B44088400C4
:1006380083130008C500840A0008C6004508013E67
:10064800C70046080318013E003EC800440884005D
:1006580047088000840A48088000440884008313FF
:100668000008C500840A0008C6004608803AFF0052
:1006780080307F02031D422B3C304502031C452B72
:10068800462B4E2B831203134408840083138001E6
:10069800840A8001831203130618532B542BEF2A64
:1006A800023083120313C7000430C600B930C500F6
:1006B800C50B5C2BC60B5C2BC70B5C2B632B01306B
:1006C8000A128A11CF270A128A110800831203130B
:1006D80047088039CC004C08D4004708CC004C07A8
:1006E800CD004D08D600C61F7A2B7B2B7C2B5614C9
:1006F80056080319802B812B912B560A031D852B35
:10070800862B8E2B0030C7000030C6000030C50095
:100718000030C400C617C701992B0030C70000304D
:10072800C6000030C5000030C4004B088039CC003A
:100738004C08D500550854060319A32BA42BA52B48
:1007480054174B08CC004C07CD004D08D500CA1FE4
:10075800AE2BAF2BB02B551455080319B42BB52B62
:10076800C52B550A031DB92BBA2BC22B0030CB0061
:100778000030CA000030C9000030C800CA17CB01D9
:10078800CD2B0030CB000030CA000030C90000304B
:10079800C800560855020318D22BD32B172C541F08
:1007A800D62BD72BDB2B8030CC004C08D406560830
:1007B800CC004C08D7005508CC004C08D600570888
:1007C800CC004C08D5004408CC004C08D700480899
:1007D800CC004C08C4005708CC004C08C800450899
:1007E800CC004C08D7004908CC004C08C500570875
:1007F800CC004C08C9004608CC004C08D7004A0871
:10080800CC004C08C6005708CC004C08CA00470862
:10081800CC004C08D7004B08CC004C08C700570840
:10082800CC004C08CB00D7015508CC00CD014D08B1
:10083800CF0056084C02CE00031CCF034F08803A65
:10084800FF0080307F02031D2B2C1A304E02031C40
:100858002E2C2F2C6C2C83120313470846044504B6
:100868004404031D382C3A2C01303B2C0030CC00BA
:100878004C08D7000030C7000030C6000030C50063
:100888000030C4005508CC004C08D600742C571C06
:100898004E2C4F2C582C5708CC0003104C0C013808
:1008A800CD004D08D7005A2C0310D70C441C5D2CE2
:1008B8005E2C5F2CD7170130CC00470DC70CC60C37
:1008C800C50CC40CCC0B612C0130CC004C08D607ED
:1008D8008312031355085602031C732C742C4B2CDB
:1008E800541B772C782CC32C5608031D7C2C7D2C8C
:1008F800862C0030C7000030C6000030C50000302C
:10090800C400F12D4808C407490803110318013E23
:1009180003198F2CC5074A0803110318013E031950
:10092800962CC6074B0803110318013E03199D2C8A
:10093800C707471CA02CA12C772D571CA42CA52C2D
:10094800AE2C5708CC0003104C0C0138CD004D08D4
:10095800D700B02C0310D70C441CB32CB42CB52CE6
:10096800D7170130CC00470DC70CC60CC50CC40CFA
:10097800CC0BB72C0130CC004C08D607772D470894
:10098800803AFF004B08803A7F02031DD52C4A08A5
:100998004602031DD52C49084502031DD52C4808DD
:1009A80044020318D82CD92C312DFF30CC00FF304D
:1009B800CD00FF30CE00FF30CF004808D0004908F6
:1009C800D1004A08D2004B08D3004408D002450899
:1009D800031C450FF02CF12CD1024608031C460FCE
:1009E800F62CF72CD2024708031C470FFC2CFD2CD1
:1009F800D3025008CC0751080318510F042D052DB8
:100A0800CD0752080318520F0A2D0B2DCE07530895
:100A18000318530ACF074F08C7004E08C6004D08F1
:100A2800C5004C08C4008030CC004C08D406D70957
:100A3800D70A5708031D212D222D3F2D0130C40749
:100A4800003003180130C507003003180130C6070D
:100A5800003003180130C7073F2D4808C402490871
:100A6800031C490FC5024A08031C4A0FC6024B085B
:100A7800031C4B0FC7024708460445044404031DE2
:100A8800462D472D732D5708031D4B2D4C2D732DC7
:100A98000030C7000030C6000030C5000030C40078
:100AA800F12D0130CC000310C40DC50DC60DC70DC6
:100AB800CC0B572DD71F612D622D632D4414571C65
:100AC800662D672D6A2D0314D70D6C2D0310D70DD5
:100AD80056080319702D712D732D0130D602C61FCB
:100AE800762D772D552DD501D71F7B2D7C2D8A2D61
:100AF80057087F390319812D822D852DD501D50AF7
:100B08008A2D441C882D892D8A2D822D550803197C
:100B18008E2D8F2DC32D0130C407003003180130EE
:100B2800C507003003180130C6070030031801302C
:100B3800C707471CA02DA12DC32D4408CC0045088C
:100B4800CD004608CE004708CF000130D0004F0D39
:100B5800CF0CCE0CCD0CCC0CD00BAB2D4F08C70056
:100B68004E08C6004D08C5004C08C400560A0319B3
:100B7800BE2DBF2DC32D0130CC004C08D607560A18
:100B88000319C72DC82DCD2D5608031DCC2DCD2DED
:100B9800DB2D0030C7000030C6000030C500003033
:100BA800C4005608031DD92DDA2DDB2DD401561C9F
:100BB800DE2DDF2DE12DC617E52D7F30CC004C084A
:100BC800C6055608CC0003104C0CCD004D08C700D4
:100BD800D41FEF2DF02DF12DC71708008312031332
:100BE80031088039B2003208BB003108B200320740
:100BF800B3003308C200B01F022E032E042E421485
:100C080042080319082E092E192E420A031D0D2E1B
:100C18000E2E162E0030B1000030B0000030AF00AC
:100C28000030AE00B017B101212E0030B100003005
:100C3800B0000030AF000030AE002D088039B2009F
:100C48003208BB062D08B2003207B3003308C300D0
:100C5800AC1F2F2E302E312E431443080319352E86
:100C6800362E462E430A031D3A2E3B2E432E0030C5
:100C7800AD000030AC000030AB000030AA00AC176B
:100C8800AD014E2E0030AD000030AC000030AB009E
:100C98000030AA002D082C042B042A04031D552E0D
:100CA800562E6F2E0030B1000030B0000030AF007B
:100CB8000030AE008030B0047F30B1043B08B20091
:100CC8003208B1043108AD003008AC002F08AB0081
:100CD8002E08AA00CE2F4208031D732E742E7D2ED7
:100CE8000030AD000030AC000030AB000030AA008E
:100CF800CE2F4208B200B3013308B50043083202D0
:100D0800B400031CB50334087F3EBC003508031843
:100D1800013E003EBD003108BA003008B9002F0876
:100D2800B8002E08B7000030B1000030B000003025
:100D3800AF000030AE000030C1000030C00000300D
:100D4800BF000030BE00C301F32E43080319AD2EC7
:100D5800AE2ECE2E0130B2000310B70DB80DB90D6E
:100D6800BA0DB20BB02E0130B2000310AE0DAF0DAC
:100D7800B00DB10DB20BB92EC11FC32EC42EC52E96
:100D88002E140130B2000310BE0DBF0DC00DC10DF1
:100D9800B20BC72E2D083A02031DDC2E2C0839028F
:100DA800031DDC2E2B083802031DDC2E2A0837020F
:100DB800031CDF2EE02EEF2E41172A08B7022B085E
:100DC800031C2B0FB8022C08031C2C0FB9022D088A
:100DD800031C2D0FBA020130B2003208C3071A30C3
:100DE8004302031CF82EF92EA92E3A0839043804B8
:100DF80037040319002F012F202F3E14202F013014
:100E0800B2000310AE0DAF0DB00DB10DB20B052F32
:100E1800C11F0F2F102F112F2E140130B2000310F5
:100E2800BE0DBF0DC00DC10DB20B132FFF30BC0797
:100E38000318BD0AFF30BD07B01F232F242F032F2F
:100E4800C301C11F282F292F452FFF303E05B200AF
:100E5800FF303F05B300FF304005B4007F30410547
:100E6800B500350834043304320403193C2F3D2FF0
:100E7800402FC301C30A452F2E1C432F442F452F53
:100E88003D2F43080319492F4A2F7B2F0130AE0706
:100E9800003003180130AF07003003180130B007E5
:100EA800003003180130B107311C5B2F5C2F7B2FFA
:100EB8002E08B2002F08B3003008B4003108B5007E
:100EC8000130B600350DB50CB40CB30CB20CB60B32
:100ED800662F3508B1003408B0003308AF00320877
:100EE800AE000130BC070318BD0A0030BD073D083D
:100EF800803AFF0080307F02031D842FFF303C02C0
:100F0800031C872F882F962FFF3083120313BC00F2
:100F18000030BD000030B1000030B0000030AF003C
:100F28000030AE00831203133D08803AFF00803082
:100F38007F02031DA12F01303C020318A42FA52F07
:100F4800B22F83120313BC01BD010030B100003081
:100F5800B0000030AF000030AE00BB0183120313B5
:100F68003C08B2003208C200421CBB2FBC2FBE2F67
:100F7800B017C22F7F30B2003208B0054208B20065
:100F88000310320CB3003308B1003B08B20032083A
:100F9800B104662E080083120313A0007A102008FB
:100FA800F60004300310F60CFF3E031DD62F76081A
:100FB8000A168A11A1260A128A118312031320081D
:100FC8000A168A11A1260A128A1183120313200312
:100FD8000319EF2FF02FF62F02302006031DF52FEF
:100FE800F62FFF2F0330F7009730F600F60BFA2F95
:100FF800F70BFA2FFF2F080008308A000408840A2C
:1010080082070034013400340A3400346434003474
:10101800E83403341034273448346F342E343A34E7
:10102800203425343034323464343A34253430347E
:10103800323464343A34253430343234643420342D
:101048002034203400342034203420342034203418
:1010580025343034323464343A342534303432343C
:101068006434203420342034203420340034543480
:1010780065346D3470342E3420344434653473341C
:101088003A3420342534303432346434DF34633431
:1010980020342034003448346F347234613472346C
:1010A80069346F34203441347434753461346C34A9
:1010B8003A34003453347434613472347434203420
:1010C800743469346D3465343A34003454346534D6
:1010D8002E343A3420342534303432346434DF3416
:1010E80063340034533474346F34703420347434BB
:0A10F80069346D3465343A34003475
:10110E00F400F3013A30740203188E288F289728C2
:10111E0030307402031C942895289728F301F30AA3
:10112E00730C08000B1D9C289D28FF28833081001E
:10113E00013083160313CC070318CD0A0030CD07F8
:10114E004D08803AFF0080307F02031DB0287E30AC
:10115E004C02031CB328B428FE2883160313CC01BB
:10116E00CD010130CA070318CB0A0030CB074B085C
:10117E00803AFF0080307F02031DC7283C304A02B0
:10118E00031CCA28CB28FE2883160313CA01CB01E1
:10119E000130F8070318F90A0030F9077908803A88
:1011AE00FF0080307F02031DDE283C307802031CD6
:1011BE00E128E228FE28F801F90101308312031319
:1011CE00ED070318EE0A0030EE076E08803AFF00B6
:1011DE0080307F02031DF52818306D02031CF8289D
:1011EE00F928FE2883120313ED01EE01FE280B11E0
:1011FE00720883120313FF0071088A00700E8300B9
:10120E00FE0E7E0E09000310831203135A0D5B0DA2
:10121E00DC005C08E2006208031D1629172920294C
:10122E000030DB000030DA000030D9000030D8008A
:10123E0085295808DC005908DD005A08DE005B08D5
:10124E00DF001F300310DF0CDE0CDD0CDC0CFF3E6C
:10125E00031D29295C08E0006008E100DA17FF3061
:10126E00D805FF30D905FF30DA050030DB059630A2
:10127E00E202E21F432944295E296208803A973E22
:10128E0003184A294B294C29172901300310DB0C6E
:10129E00DA0CD90CD80CFF3E031D4D290130DC00B1
:1012AE005C08E207031D5C295D294C297529203055
:1012BE006202031C63296429702917290130DC009E
:1012CE000310D80DD90DDA0DDB0DDC0B67290130BB
:1012DE00E2026208031D7429752965296108031944
:1012EE0079297A298529D809D909DA09DB09D80A91
:1012FE000319D90A0319DA0A0319DB0A08007A104E
:10130E00831203130810881008118811081288120E
:10131E0083160313081088100811881108128812FA
:10132E00343083120313A200F130A100A10B9D29CA
:10133E00A20B9D2903300A128A11CF270A128A1591
:10134E00073083120313A2007C30A100A10BAD293C
:10135E00A20BAD29000003300A128A11CF270A1200
:10136E008A15073083120313A2007C30A100A10B53
:10137E00BE29A20BBE29000003300A128A11CF2704
:10138E000A128A15073083120313A2007C30A100C3
:10139E00A10BCF29A20BCF29000002300A128A110D
:1013AE00CF270A128A15073083120313A2007C304E
:1013BE00A100A10BE029A20BE029000028300A129F
:1013CE008A11CF270A128A15413083120313A20005
:1013DE00ED30A100A10BF129A20BF129F6290C3059
:1013EE000A128A11CF270A128A154130831203136B
:1013FE00A200ED30A100A10B022AA20B022A072A9D
:10140E0001300A128A11CF270A128A15413083122F
:10141E000313A200ED30A100A10B132AA20B132A75
:10142E00182A06300A128A11CF270A128A1541305D
:10143E0083120313A200ED30A100A10B242AA20BEC
:10144E00242A292A080083120313A400240803194E
:10145E00312A322A462AF61F352A362A462A730997
:10146E00A6007409A7007509A8007609A900A60AA6
:10147E000319A70A0319A80A0319A90A4E2A7608FE
:10148E00A9007508A8007408A7007308A6007608BE
:10149E00750474047304031D552A562A5F2A0030FE
:1014AE00F6000030F5000030F4000030F300E52ABD
:1014BE009630A0002008A500712A0130A000200857
:1014CE00A50701300310A90CA80CA70CA60CFF3E13
:1014DE00031D692AFE302905031D762A772A642A00
:1014EE00932A0130A0002008A5070130A60700307E
:1014FE0003180130A707003003180130A807003089
:10150E0003180130A90701300310A90CA80CA70C71
:10151E00A60CFF3E031D8B2AFF302905031D982ABA
:10152E00992A782AA52A0130A5020130A0000310BD
:10153E00A60DA70DA80DA90DA00B9E2AA81BA82AC3
:10154E00A92AAF2A023025020318AE2AAF2A9A2AF8
:10155E002518B22AB32ABB2AFF30A605FF30A705ED
:10156E007F30A805FF30A9050310A50C2508A000A3
:10157E00A101A201A30118300310A00DA10DA20D0F
:10158E00A30DFF3E031DC32A2008A6042108A704AD
:10159E002208A8042308A90424080319D72AD82A44
:1015AE00DD2AF61FDB2ADC2ADD2AA9172908F60018
:1015BE002808F5002708F4002608F3000800831613
:1015CE0003132B0883120313E600831603132A0852
:1015DE0083120313E50083160313290883120313E2
:1015EE00E40083160313280883120313E3000A167C
:1015FE008A11A4270A128A1583120313660883160A
:10160E000313A30083120313650883160313A200AA
:10161E0083120313640883160313A10083120313AA
:10162E00630883160313A0002B08A7002A08A60040
:10163E002908A5002808A4000A168A1101260A12F4
:10164E008A15831603132308AF002208AE00210863
:10165E00AD002008AC002F0883120313C7008316B9
:10166E0003132E0883120313C600831603132D08CB
:10167E0083120313C500831603132C08831203135E
:10168E00C400831603132B0883120313CB00831697
:10169E0003132A0883120313CA008316031329089F
:1016AE0083120313C900831603132808831203132E
:1016BE00C8000A128A116A230A128A1583120313AA
:1016CE00470883160313AB008312031346088316D1
:1016DE000313AA0083120313450883160313A900EC
:1016EE0083120313440883160313A8002B088312D6
:1016FE000313E600831603132A0883120313E5006F
:10170E0083160313290883120313E40083160313AD
:10171E00280883120313E3000A168A11A4270A125B
:10172E008A1583120313660883160313AB00831204
:10173E000313650883160313AA00831203136408A8
:10174E0083160313A900831203136308831603136E
:10175E00A8000800831203132308803AF300270819
:10176E00803A7302031DBD2B260822020318C02BDC
:10177E00C12B4E2C831203132308803AF3006E08FC
:10178E00803A7302031DCD2B6D0822020318D02B55
:10179E00D12B082C831203136E08803AF30027080E
:1017AE00803A7302031DDD2B26086D020318E02B11
:1017BE00E12BE82B013083120313A0000030A100AF
:1017CE00A42C8312031327086E06031DF02B260884
:1017DE006D06031DF32BF42B032C7908803AF300CE
:1017EE002908803A7302031DFE2B2808780203187D
:1017FE00012C022C032CE12B83120313A001A10157
:10180E00A42C8312031323086E06031D102C22082A
:10181E006D06031D132C142C032C2508803AF3009F
:10182E007908803A7302031D1E2C780824020318CF
:10183E00212C222CA42C831203136E08803AF30061
:10184E002708803A7302031D2E2C26086D020318FA
:10185E00312C322C332CE12B8312031327086E0606
:10186E00031D3B2C26086D06031D3E2C3F2C032C1E
:10187E007908803AF3002908803A7302031D492C37
:10188E002808780203184C2C4D2C032CE12B8312C4
:10189E0003132308803AF3006E08803A7302031D87
:1018AE005A2C6D08220203185D2C5E2C5F2CE12B46
:1018BE008312031323086E06031D672C22086D0680
:1018CE00031D6A2C6B2C7A2C2508803AF3007908BC
:1018DE00803A7302031D752C780824020318782CA5
:1018EE00792C032CE12B6E08803AF3002708803AFE
:1018FE007302031D842C26086D020318872C882C76
:10190E00892CE12B8312031327086E06031D912CDD
:10191E0026086D06031D942C952C032C7908803A0D
:10192E00F3002508803A7302031D9F2C24087802C9
:10193E000318A22CA32C032CE12B08005530831680
:10194E0003138100A0308B000130850033308600F8
:10195E008701880189010130831203139F008E30A5
:10196E00831603139F000A128A1586210A128A15FE
:10197E0083160313C401C501BC01BD01BE01BF0125
:10198E00C001C101C201C3010A168A11EA230A125B
:10199E008A15831203131E0883160313B000B101B8
:1019AE003008B100B0011E083007F30031080318EB
:1019BE00310AF400F501F41BF5037508F600013049
:1019CE000A128A152A220A128A157608831203131E
:1019DE00B1007508B0007408AF007308AE00403057
:1019EE00AD000230AC00F130AB00AA30AA000A12F2
:1019FE008A11F2250A128A15831203132D08CB00C1
:101A0E002C08CA002B08C9002A08C800C230C7001B
:101A1E004830C6000030C5000030C4000A128A11DA
:101A2E006A230A128A1583120313470883160313B7
:101A3E00B70083120313460883160313B6008312EE
:101A4E000313450883160313B500831203134408CA
:101A5E0083160313B4003708AB003608AA00350806
:101A6E00A9003408A8000A128A15E6220A128A155D
:101A7E00831603132B08BB002A08BA002908B900E5
:101A8E002808B8003B0883120313DB0083160313E8
:101A9E003A0883120313DA008316031339088312EC
:101AAE000313D90083160313380883120313D800C7
:101ABE000A128A150A210A128A158312031359086B
:101ACE0083160313C90083120313580883160313D6
:101ADE00C8000A168A1149270A128A15831203139F
:101AEE0006187A2D7B2DA12DBC3083160313B00062
:101AFE00300883120313C100BE3083160313B100E6
:101B0E00310883120313C200C03083160313B200D0
:101B1E00320883120313C300C23083160313B300BB
:101B2E00330883120313C400C4300A128A1127200B
:101B3E000A128A1583120313061AA62DA72D272E15
:101B4E00861AAA2DAB2D272E831603134408FB3EAF
:101B5E00B00045080318013EFF3EB1004908803A27
:101B6E00B2003108803A3202031DBF2D3008480200
:101B7E000318C22DC32D0B2E831603134508831293
:101B8E000313A10083160313440883120313A0004A
:101B9E00831603133D0883120313A3008316031346
:101BAE003C0883120313A200831603133F0883120B
:101BBE000313A500831603133E0883120313A40018
:101BCE0083160313410883120313A700831603130E
:101BDE00400883120313A6008316031343088312CF
:101BEE000313A90083160313420883120313A800DC
:101BFE000A128A15B1230A128A15831203130708D3
:101C0E002006FE3920068700831603134408053E7E
:101C1E00B00045080318013E003EB1003108803A7D
:101C2E00B2004908803A3202031D1F2E48083002C6
:101C3E000318222E232ECB2C831203130710CB2C2A
:101C4E000710CB2C0A128A11102883120313BB0023
:101C5E002A30B0003008B300E92F25303A060319B8
:101C6E00392E3A2E462E3A08B0003B088400300832
:101C7E00831380000130B0003008BB07E92FB80194
:101C8E00B901B7014F2E37150130B0003008A90742
:101C9E00290884000A128A1500200A128A15B0003B
:101CAE00B1013108003A03195D2E622E3008303A28
:101CBE0003194A2E622E290884000A128A15002062
:101CCE000A128A150A128A1587200A128A15031C0F
:101CDE00712E722EB22E83120313B801B9010A307F
:101CEE00F3000030F400831203133908F6003808AD
:101CFE00F5000A168A111A240A128A15740883121C
:101D0E000313B9007308B800290884000A128A1553
:101D1E0000200A128A15D03EB000FF3003180030A2
:101D2E00B1003008B8070318B90A3108B9070130F5
:101D3E00B0003008A907290884000A128A1500206D
:101D4E000A128A150A128A1587200A128A15031892
:101D5E00B12EB22E762E013083120313A907FF3057
:101D6E00290784000A128A1500200A128A15BA0061
:101D7E00B000B1013108003A0319C62EE92F300820
:101D8E00003A0319FB2F643A0319D12E0D3A0319A9
:101D9E00D12EE92F3308840083130008B500840A7E
:101DAE000008B6000230B0003008B307B61FE02EB0
:101DBE00E12EEA2E0330B0003008B704B509B6099B
:101DCE00B50A0319B60ABA01BA0A3A08B0003007C2
:101DDE00013E84000A128A1500200A128A15B100EB
:101DEE000A128A1500200A128A15B200320836022B
:101DFE00031D032F310835020318062F072F082F56
:101E0E00122F0130B0003008BA0705303A06031D14
:101E1E00112F122FEC2E380839040319172F182FF3
:101E2E00242F3708033903191D2F1E2F242FFF309F
:101E3E00B8070318B90AFF30B9073908803A803C51
:101E4E00031D2B2F38083A0203182E2F2F2F3B2F4E
:101E5E00831203133A08B000B1013008B8023108FA
:101E6E00031CB903B9023F2F83120313B801B90142
:101E7E00371D422F432F722F370803390319482F6E
:101E8E00492F542F2D30B0003B08840030088313A7
:101E9E0080000130B0003008BB0738083904031940
:101EAE00592F5A2FA02F3030B0003B088400300835
:101EBE00831380000130B0003008BB07FF30B80735
:101ECE000318B90AFF30B90738083904031D702FFB
:101EDE00712F5A2FA02F380839040319772F782F16
:101EEE008F2F2030B0003B08840030088313800011
:101EFE000130B0003008BB07FF30B8070318B90A2D
:101F0E00FF30B90738083904031D8E2F8F2F782F15
:101F1E00370803390319942F952FA02F2D30B000B9
:101F2E003B0884003008831380000130B000300875
:101F3E00BB073A08B0003008B400E02F0A30A30007
:101F4E000030A4003408B0003007013E84000A12AD
:101F5E008A1500200A128A15F3000A128A1500202B
:101F6E000A128A15F4003608F6003508F5000A162E
:101F7E008A11BB250A128A15740883120313A60050
:101F8E007308A5000A168A11B6240A128A1583123E
:101F9E0003132308303EB1003108BA003A08B000EE
:101FAE003B0884003008831380000130B0003008F5
:101FBE00BB07FF30B0003008B407340A031DE82F0A
:101FCE00E92FA52F0130A907FF30290784000A1237
:101FDE008A1500200A128A15B0003008BA003A0895
:101FEE00031DFA2FFB2F342E3B0884008313800130
:021FFE000800D9
:1027C40064008001840A0406031900340406E32B20
:1027D400831203131F15F22B0330F300F30BF02BBA
:1027E400831203131F19F72BF82BEE2B0800831207
:1027F4000313A101A10A01300A168A1145240A16FD
:102804008A11363083120313BE003E08A9003D0826
:10281400AB003C08AA00CE300A128A152C260A16F0
:102824008A11CE300A168A117D240A168A110800EC
:1028340083120313A001A101731C212C222C2A2C26
:10284400750883120313A0070318A10A7608A107C9
:1028540001300310F50DF60DFF3E031D2B2C013046
:102864000310F40CF30CFF3E031D322C73087404A4
:10287400031D3D2C3E2C1E2C831203132108F4004F
:102884002008F300080083120313A400692C240811
:10289400BF3E0A128A11CF270A168A117C2C2408FB
:1028A400933E0A128A11CF270A168A117C2C240817
:1028B400D33E0A128A11CF270A168A117C2C2408C7
:1028C4007F3E0A128A11CF270A168A117C2C21080E
:1028D400A200A3012308003A0319712C612C2208D9
:1028E400023A0319492C013A0319512C073A0319E6
:1028F400592C612C080083120313A100A0017A143F
:10290400AA2C20082107F600760884000008F700A6
:1029140004300310F70CFF3E031D8B2C77080A16B6
:102924008A11A1260A168A1183120313200821078B
:10293400F60076088400831300080A168A11A1267B
:102944000A168A110130F600760883120313A007D1
:1029540020082107F6007608840083130008031D6D
:10296400B42CB52C832C08008312031323082404ED
:102974000319BD2CBE2CED2CA801A80ACC2C0130C7
:102984000310A30DA40DFF3E031DC22C0130A700AC
:102994002708A807A41FCF2CD02CC12C240826025A
:1029A400031DD62C23082502031CD92CDA2CE02C79
:1029B4002308A5022408031CA603A6020130031061
:1029C400A40CA30CFF3E031DE12C0130A802031D3F
:1029D400EC2CED2CD02C2608A4002508A30008001C
:1029E40083120313A101A10A01300A168A11452496
:1029F4000A168A114A3083120313BC003C08A9004A
:102A0400CE300A128A152C260A168A11CE300A16DE
:102A14008A117D240A168A11023083120313BC0022
:102A24003C08A10001300A168A1145240A168A11AD
:102A3400223083120313BC003C08A9006E08AB00CB
:102A44006D08AA007908AD007808AC00CE300A12EF
:102A54008A152C260A168A11CE300A168A117D246C
:102A64000A168A11080083120313A101A10A013076
:102A74000A168A1145240A168A115930831203133F
:102A8400C0004008A900CE300A128A152C260A1666
:102A94008A11CE300A168A117D240A168A11023050
:102AA40083120313C0004008A10001300A168A11E2
:102AB40045240A168A11223083120313C0004008E9
:102AC400A9003D08AB003C08AA003F08AD003E0841
:102AD400AC00CE300A128A152C260A168A11CE3082
:102AE4000A168A117D240A168A1108008312031318
:102AF400A101A10A01300A168A1145240A168A1175
:102B0400713083120313C0004008A900CE300A12AA
:102B14008A152C260A168A11CE300A168A117D24AB
:102B24000A168A11023083120313C0004008A10060
:102B340001300A168A1145240A168A11223083129A
:102B44000313C0004008A9003D08AB003C08AA00DC
:102B54003F08AD003E08AC00CE300A128A152C2680
:102B64000A168A11CE300A168A117D240A168A1191
:102B7400080083120313A101A2017308740403194A
:102B8400C42DC52DFC2DA001A00AD32D01300310A6
:102B9400F30DF40DFF3E031DC92D0130F700770836
:102BA400A007F41FD62DD72DC82D01300310A10D79
:102BB400A20DFF3E031DD82D74087602031DE42DDB
:102BC40073087502031CE72DE82DEF2D7308F50239
:102BD4007408031CF603F602211401300310F40CEC
:102BE400F30CFF3E031DF02D0130A002031DFB2D4D
:102BF400FC2DD72D2208F4002108F30008008030B2
:102C040083160313A306270883120313C70083162E
:102C14000313260883120313C6008316031325081F
:102C240083120313C50083160313240883120313AA
:102C3400C40083160313230883120313CB008316E3
:102C44000313220883120313CA00831603132108F3
:102C540083120313C900831603132008831203137A
:102C6400C8000A128A116A230A168A1183120313EE
:102C7400470883160313A30083120313460883161D
:102C84000313A20083120313450883160313A10040
:102C940083120313440883160313A00008000030B2
:102CA400831203132005F30000302105F400803063
:102CB4002205F5007F302305F600760875047404B8
:102CC4007304031D662E672E6F2E0030A3000030A0
:102CD400A2000030A1000030A00000302405F30061
:102CE40000302505F40080302605F5007F302705E7
:102CF400F6007608750474047304031D822E832E73
:102D04008B2E0030A7000030A6000030A500003054
:102D1400A40027082306031D992E26082206031D56
:102D2400992E25082106031D992E2408200603192F
:102D34009C2E9D2E9F2E0310A02E03140800F50038
:102D44007A18A52EA92E831203130814AC2E83120D
:102D54000313081075080139F300F30DF30D080887
:102D64007306FB39730688007508F3000310730CAF
:102D74000139F400F40DF40DF40D08087406F73964
:102D8400740688007508F30002300310F30CFF3E4C
:102D9400031DC72E73080139F400F40E08087406E5
:102DA400EF39740688007508F30003300310F30C40
:102DB400FF3E031DD82E73080139F400F40EF40D00
:102DC40008087406DF39740688008810000083122E
:102DD4000313881400008312031388102130F300B6
:102DE400F30BF22E0800831203132B08A3002A0806
:102DF400A2002908A1002808A0000030A700003084
:102E0400A6000030A5000030A4000A168A1151263D
:102E14000A168A11031C0F2F102F192F8312031364
:102E24002C08840083138001840A8001482F8312B4
:102E340003132B087F39AD00AE010310AD0DAE0DA9
:102E44002C0884002D0883138000840A2E08800037
:102E54002A0D2A0D0139AD00AE012C0884002D087D
:102E64008004840A2E0880042C08840082308007A1
:102E7400840F00080318000AFF00FF307F0780005A
:102E840084032B0880393F38AB00AA13080083124F
:102E94000313A101A10A01300A168A1145240A1656
:102EA4008A110B3083120313BC003C08A9006E087E
:102EB400AB006D08AA007908AD007808AC00831651
:102EC40003134B0883120313AF00831603134A083A
:102ED40083120313AE00CE300A128A152C260A166A
:102EE4008A11CE300A168A117D240A168A110230FC
:102EF40083120313BC003C08A10001300A168A1196
:102F040045240A168A11653083120313BC003C0859
:102F1400A90083160313490883120313AB00831615
:102F24000313480883120313AA00CE300A128A1529
:102F34002C260A168A11CE300A168A117D240A1606
:102F44008A110800831203136608AB006508AA00FF
:102F54006408A9006308A8006B30F7007708AC0088
:102F64000A168A11F5260A168A1183120313EC1F16
:102F7400BC2FBD2FC62F0030E6000030E500003026
:102F8400E4000030E300FF2F00306C021D30031911
:102F94006B02031CCE2FCF2FD02FFF2F6608DB0030
:102FA4006508DA006408D9006308D8000A128A1593
:102FB4000A210A168A11831203135B08F6005A08C1
:102FC400F5005908F4005808F30001300A128A1574
:102FD4002A220A168A11760883120313EA00750856
:102FE400E9007408E8007308E7006A08E600690865
:0C2FF400E5006808E4006708E30008003E
:02400E00F13F80
:00000001FF
