:020000040000FA
:060000000A128A1110280B
:10000800FE00030EF0000A08F100831203137F08B4
:10001800F2000A128A158D2C0A128A111328FA0185
:10002800F801F90183135D30840065300A128A15DE
:10003800AD210A128A11A0308400B0300A128A1544
:10004800AD210A128A1183010A128A151C2E831205
:100058000313C90001300A128A1501220A128A11F3
:10006800831203134908840083130008BC00840A20
:100078000008BD000A128A11DD270A128A1102300F
:1000880083120313C7000430C600B930C500C50B7E
:100098004B28C60B4B28C70B4B285228AB280230DD
:1000A80083120313C7000430C600B930C500C50B5E
:1000B8005B28C60B5B28C70B5B28622883120313D7
:1000C8004908840083130008BC00840A0008BD00A6
:1000D8000A128A11DD270A128A118312031386185D
:1000E800762877288E284908840083130008C500DD
:1000F800840A0008C6004508013EC70046080318E0
:10010800013E003EC8004908840047088000840A70
:10011800480880004908840083130008C500840A41
:100128000008C6004608803AFF0080307F02031DA1
:100138009F2864304502031CA228A328AB288312F9
:1001480003134908840083138001840A8001831201
:1001580003130618B028B128532801300A128A154B
:1001680001220A128A110A128A15DF220A128A113A
:10017800023083120313C7000430C600B930C5002B
:10018800C50BC428C60BC428C70BC428CB28FF2816
:10019800023083120313C7000430C600B930C5000B
:1001A800C50BD428C60BD428C70BD428DB280A12C1
:1001B8008A15DF220A128A11831203138618E5288A
:1001C800E628EE285F08013EDF0060080318013EBC
:1001D800003EE0006008803AFF0080307F02031D87
:1001E800F72818305F02031CFA28FB28FF2883121F
:1001F8000313DF01E00183120313061804290529FC
:10020800CC28023083120313C7000430C600B9306B
:10021800C500C50B0D29C60B0D29C70B0D291429BF
:100228004829023083120313C7000430C600B930CE
:10023800C500C50B1D29C60B1D29C70B1D2924295F
:100248000A128A15DF220A128A11831203138618EA
:100258002E292F2937296108013EE1006208031879
:10026800013E003EE2006208803AFF0080307F02D3
:10027800031D40293C306102031C432944294829B5
:1002880083120313E101E2018312031306184D29B7
:100298004E29152901300A128A1501220A128A11DB
:1002A800831203134108840083130008BC00840AE6
:1002B8000008BD00420884000008BE00840A000847
:1002C800BF000A128A1522230A128A1102308312E9
:1002D8000313C7000430C600B930C500C50B722926
:1002E800C60B7229C70B72297929D92902308312C2
:1002F8000313C7000430C600B930C500C50B8229F6
:10030800C60B8229C70B8229892983120313410846
:10031800840083130008BC00840A0008BD0042085A
:1003280084000008BE00840A0008BF000A128A156B
:1003380022230A128A11831203138618A429A529D5
:10034800BC294108840083130008C500840A0008FA
:10035800C6004508013EC70046080318013E003E96
:10036800C8004108840047088000840A48088000C3
:100378004108840083130008C500840A0008C600E9
:100388004608803AFF0080307F02031DCD291830CF
:100398004502031CD029D129D92983120313410806
:1003A800840083138001840A8001831203130618D2
:1003B800DE29DF297A29023083120313C7000430AB
:1003C800C600B930C500C50BE729C60BE729C70B1E
:1003D800E729EE294E2A023083120313C70004309E
:1003E800C600B930C500C50BF729C60BF729C70BDE
:1003F800F729FE2983120313410884008313000898
:10040800BC00840A0008BD00420884000008BE0041
:10041800840A0008BF000A128A1522230A128A11C8
:10042800831203138618192A1A2A312A42088400CB
:1004380083130008C500840A0008C6004508013E69
:10044800C70046080318013E003EC8004208840061
:1004580047088000840A4808800042088400831303
:100468000008C500840A0008C6004608803AFF0054
:1004780080307F02031D422A3C304502031C452A76
:10048800462A4E2A831203134208840083138001EC
:10049800840A8001831203130618532A542AEF2969
:1004A80001300A128A1501220A128A1183120313D3
:1004B8004308840083130008BC00840A0008BD00B8
:1004C800440884000008BE00840A0008BF000A121D
:1004D8008A1565230A128A11023083120313C70092
:1004E8000430C600B930C500C50B782AC60B782A77
:1004F800C70B782A7F2ADF2A023083120313C7002A
:100508000430C600B930C500C50B882AC60B882A36
:10051800C70B882A8F2A8312031343088400831386
:100528000008BC00840A0008BD00440884000008D4
:10053800BE00840A0008BF000A128A1565230A1241
:100548008A11831203138618AA2AAB2AC22A4308DF
:10055800840083130008C500840A0008C600450803
:10056800013EC70046080318013E003EC800430884
:10057800840047088000840A4808800043088400F3
:1005880083130008C500840A0008C6004608803A9C
:10059800FF0080307F02031DD32A18304502031C58
:1005A800D62AD72ADF2A8312031343088400831329
:1005B8008001840A8001831203130618E42AE52ABD
:1005C800802A023083120313C7000430C600B930F2
:1005D800C500C50BED2AC60BED2AC70BED2AF42A78
:1005E800542B023083120313C7000430C600B930FD
:1005F800C500C50BFD2AC60BFD2AC70BFD2A042B17
:10060800831203134308840083130008BC00840A80
:100618000008BD00440884000008BE00840A0008E1
:10062800BF000A128A1565230A128A11831203135E
:1006380086181F2B202B372B4408840083130008AF
:10064800C500840A0008C6004508013EC7004608E0
:100658000318013E003EC800440884004708800093
:10066800840A480880004408840083130008C500F1
:10067800840A0008C6004608803AFF0080307F02DE
:10068800031D482B3C304502031C4B2B4C2B542B91
:10069800831203134408840083138001840A8001B1
:1006A800831203130618592B5A2BF52A023083128A
:1006B8000313C7000430C600B930C500C50B622B50
:1006C800C60B622BC70B622B692B01300A128A15E5
:1006D80001220A128A110800831203133108803993
:1006E800B2003208BB003108B2003207B300330849
:1006F800C200B01F802B812B822B421442080319A1
:10070800862B872B972B420A031D8B2B8C2B942B24
:100718000030B1000030B0000030AF000030AE0053
:10072800B017B1019F2B0030B1000030B00000308D
:10073800AF000030AE002D088039B2003208BB0689
:100748002D08B2003207B3003308C300AC1FAD2B2D
:10075800AE2BAF2B431443080319B32BB42BC42B74
:10076800430A031DB82BB92BC12B0030AD00003054
:10077800AC000030AB000030AA00AC17AD01CC2BA8
:100788000030AD000030AC000030AB000030AA00F3
:100798002D082C042B042A04031DD32BD42BED2B5A
:1007A8000030B1000030B0000030AF000030AE00C3
:1007B8008030B0047F30B1043B08B2003208B10485
:1007C8003108AD003008AC002F08AB002E08AA0095
:1007D8004C2D4208031DF12BF22BFB2B0030AD00F2
:1007E8000030AC000030AB000030AA004C2D4208AD
:1007F800B200B3013308B50043083202B400031C49
:10080800B50334087F3EBC0035080318013E003E9E
:10081800BD003108BA003008B9002F08B8002E080A
:10082800B7000030B1000030B0000030AF00003039
:10083800AE000030C1000030C0000030BF00003002
:10084800BE00C301712C430803192B2C2C2C4C2CF3
:100858000130B2000310B70DB80DB90DBA0DB20BC7
:100868002E2C0130B2000310AE0DAF0DB00DB10D3E
:10087800B20B372CC11F412C422C432C2E140130B3
:10088800B2000310BE0DBF0DC00DC10DB20B452C3B
:100898002D083A02031D5A2C2C083902031D5A2C24
:1008A8002B083802031D5A2C2A083702031C5D2C1A
:1008B8005E2C6D2C41172A08B7022B08031C2B0F3E
:1008C800B8022C08031C2C0FB9022D08031C2D0F8D
:1008D800BA020130B2003208C3071A304302031CBF
:1008E800762C772C272C3A08390438043704031956
:1008F8007E2C7F2C9E2C3E149E2C0130B2000310BF
:10090800AE0DAF0DB00DB10DB20B832CC11F8D2CE8
:100918008E2C8F2C2E140130B2000310BE0DBF0D8B
:10092800C00DC10DB20B912CFF30BC070318BD0AD6
:10093800FF30BD07B01FA12CA22C812CC301C11F01
:10094800A62CA72CC32CFF303E05B200FF303F0574
:10095800B300FF304005B4007F304105B5003508CD
:100968003404330432040319BA2CBB2CBE2CC30143
:10097800C30AC32C2E1CC12CC22CC32CBB2C43086D
:100988000319C72CC82CF92C0130AE070030031806
:100998000130AF07003003180130B00700300318EA
:1009A8000130B107311CD92CDA2CF92C2E08B200F1
:1009B8002F08B3003008B4003108B5000130B60084
:1009C800350DB50CB40CB30CB20CB60BE42C3508D1
:1009D800B1003408B0003308AF003208AE0001306F
:1009E800BC070318BD0A0030BD073D08803AFF0068
:1009F80080307F02031D022DFF303C02031C052DB1
:100A0800062D142DFF3083120313BC000030BD00E7
:100A18000030B1000030B0000030AF000030AE0050
:100A2800831203133D08803AFF0080307F02031DC4
:100A38001F2D01303C020318222D232D302D831247
:100A48000313BC01BD010030B1000030B00000301C
:100A5800AF000030AE00BB01831203133C08B200A4
:100A68003208C200421C392D3A2D3C2DB017402DBA
:100A78007F30B2003208B0054208B2000310320CD1
:100A8800B3003308B1003B08B2003208B104E42BCC
:100A9800080083120313BB002A30B0003008B300EB
:100AA8000A2F25303A0603195A2D5B2D672D3A086F
:100AB800B0003B0884003008831380000130B00088
:100AC8003008BB070A2FB801B901B701702D3715D7
:100AD8000130B0003008A907290884000A128A15D5
:100AE80000200A128A11B000B1013108003A031936
:100AF8007E2D832D3008303A03196B2D832D29085C
:100B080084000A128A1500200A128A110A128A150C
:100B1800C4210A128A11031C922D932DD32D8312FE
:100B28000313B801B9010A30F3000030F40083124E
:100B380003133908F6003808F5000A128A15D62179
:100B48000A128A11740883120313B9007308B800D3
:100B5800290884000A128A1500200A128A11D03E38
:100B6800B000FF3003180030B1003008B807031890
:100B7800B90A3108B9070130B0003008A9072908B7
:100B880084000A128A1500200A128A110A128A158C
:100B9800C4210A128A110318D22DD32D972D0130A2
:100BA80083120313A907FF30290784000A128A1544
:100BB80000200A128A11BA00B000B1013108003AC7
:100BC8000319E72D0A2F3008003A03191C2F643A3D
:100BD8000319F22D0D3A0319F22D0A2F3308840058
:100BE80083130008B500840A0008B6000230B0007C
:100BF8003008B307B61F012E022E0B2E0330B000AB
:100C08003008B704B509B609B50A0319B60ABA0116
:100C1800BA0A3A08B0003007013E84000A128A1561
:100C280000200A128A11B1000A128A1500200A123D
:100C38008A11B20032083602031D242E310835020B
:100C48000318272E282E292E332E0130B000300805
:100C5800BA0705303A06031D322E332E0D2E3808FA
:100C680039040319382E392E452E3708033903194C
:100C78003E2E3F2E452EFF30B8070318B90AFF3025
:100C8800B9073908803A803C031D4C2E38083A02CF
:100C980003184F2E502E5C2E831203133A08B0000F
:100CA800B1013008B8023108031CB903B902602E3B
:100CB80083120313B801B901371D632E642E932ED6
:100CC800370803390319692E6A2E752E2D30B000A6
:100CD8003B0884003008831380000130B0003008DE
:100CE800BB073808390403197A2E7B2EC12E303001
:100CF800B0003B0884003008831380000130B00046
:100D08003008BB07FF30B8070318B90AFF30B90726
:100D180038083904031D912E922E7B2EC12E3808D7
:100D280039040319982E992EB02E2030B0003B08B4
:100D380084003008831380000130B0003008BB07FE
:100D4800FF30B8070318B90AFF30B9073808390463
:100D5800031DAF2EB02E992E370803390319B52E6F
:100D6800B62EC12E2D30B0003B0884003008831306
:100D780080000130B0003008BB073A08B0003008E6
:100D8800B400012F0A30A3000030A4003408B000DA
:100D98003007013E84000A128A1500200A128A11BF
:100DA800F3000A128A1500200A128A11F400360884
:100DB800F6003508F5000A128A15A8230A128A11C6
:100DC800740883120313A6007308A5000A128A1573
:100DD800A3220A128A11831203132308303EB1009A
:100DE8003108BA003A08B0003B0884003008831381
:100DF80080000130B0003008BB07FF30B000300879
:100E0800B407340A031D092F0A2FC62E0130A9077B
:100E1800FF30290784000A128A1500200A128A1155
:100E2800B0003008BA003A08031D1B2F1C2F552D9F
:100E38003B08840083138001080083120313A40075
:100E480024080319282F292F3D2FF61F2C2F2D2F6B
:100E58003D2F7309A6007409A7007509A800760933
:100E6800A900A60A0319A70A0319A80A0319A90AB7
:100E7800452F7608A9007508A8007408A70073080C
:100E8800A6007608750474047304031D4C2F4D2FB7
:100E9800562F0030F6000030F5000030F400003026
:100EA800F300DC2F9630A0002008A500682F013041
:100EB800A0002008A50701300310A90CA80CA70C56
:100EC800A60CFF3E031D602FFE302905031D6D2F64
:100ED8006E2F5B2F8A2F0130A0002008A507013054
:100EE800A607003003180130A707003003180130A7
:100EF800A807003003180130A90701300310A90C16
:100F0800A80CA70CA60CFF3E031D822FFF30290555
:100F1800031D8F2F902F6F2F9C2F0130A5020130BA
:100F2800A0000310A60DA70DA80DA90DA00B952FC5
:100F3800A81B9F2FA02FA62F023025020318A52F2C
:100F4800A62F912F2518A92FAA2FB22FFF30A6055B
:100F5800FF30A7057F30A805FF30A9050310A50CB1
:100F68002508A000A101A201A30118300310A00DBB
:100F7800A10DA20DA30DFF3E031DBA2F2008A60444
:100F88002108A7042208A8042308A904240803198F
:100F9800CE2FCF2FD42FF61FD22FD32FD42FA91770
:100FA8002908F6002808F5002708F4002608F300A9
:100FB800080083120313A101A10A01300A128A153D
:100FC80032220A128A11363083120313BE003E08F9
:100FD800A9003D08AB003C08AA00A0300A128A11FB
:100FE8004D250A128A11A0300A128A156A220A129D
:040FF8008A11080052
:1010000008308A000408840A82070034013400345E
:101010000A34003464340034E834033410342734A0
:1010200048346F342E343A3420342534303432345A
:1010300064343A3425343034323464343A34253428
:1010400030343234643420342034203400342034BA
:101050002034203420342034253430343234643485
:101060003A3425343034323464342034203420345B
:10107000203420340034543465346D3470342E34CC
:1010800020344434653473343A34203425343034D5
:1010900032346434DF346334203420340034483450
:1010A0006F3472346134723469346F3420344134B3
:1010B0007434753461346C343A34003453347434D9
:1010C0006134723474342034743469346D3465346A
:1010D0003A340034543465342E343A3420342534D0
:1010E000303432346434DF34633400345334743491
:1010F0006F3470342034743469346D3465343A3468
:021100000034B9
:10135A0064008001840A0406031900340406AE29D5
:10136A00831203131F15BD290330F300F30BBB29A6
:10137A00831203131F19C229C329B9290800F400CB
:10138A00F3013A3074020318CB29CC29D42930301E
:10139A007402031CD129D229D429F301F30A730C4C
:1013AA00080083120313A001A101731CDD29DE29A1
:1013BA00E629750883120313A0070318A10A760801
:1013CA00A10701300310F50DF60DFF3E031DE729B5
:1013DA0001300310F40CF30CFF3E031DEE297308D1
:1013EA007404031DF929FA29DA298312031321083F
:1013FA00F4002008F300080083120313A0007A10F7
:10140A002008F60004300310F60CFF3E031D082ADC
:10141A0076080A128A1539240A128A1583120313C6
:10142A0020080A128A1539240A128A15831203130C
:10143A0020030319212A222A282A02302006031D02
:10144A00272A282A312A0330F7009730F600F60BAC
:10145A002C2AF70B2C2A312A080083120313A40022
:10146A00562A2408BF3E0A128A1501220A128A1530
:10147A00692A2408933E0A128A1501220A128A1539
:10148A00692A2408D33E0A128A1501220A128A15E9
:10149A00692A24087F3E0A128A1501220A128A152D
:1014AA00692A2108A200A3012308003A03195E2A27
:1014BA004E2A2208023A0319362A013A03193E2A09
:1014CA00073A0319462A4E2A080083120313A10079
:1014DA00A0017A14972A20082107F60076088400CA
:1014EA000008F70004300310F70CFF3E031D782AAA
:1014FA0077080A128A1539240A128A1583120313E5
:10150A0020082107F60076088400831300080A12CF
:10151A008A1539240A128A150130F60076088312D0
:10152A000313A00720082107F60076088400831316
:10153A000008031DA12AA22A702A08008312031395
:10154A00230824040319AA2AAB2ADA2AA801A80A1A
:10155A00B92A01300310A30DA40DFF3E031DAF2AC3
:10156A000130A7002708A807A41FBC2ABD2AAE2A53
:10157A0024082602031DC32A23082502031CC62A9F
:10158A00C72ACD2A2308A5022408031CA603A602FB
:10159A0001300310A40CA30CFF3E031DCE2A013018
:1015AA00A802031DD92ADA2ABD2A2608A40025087A
:1015BA00A300080083120313A101A10A01300A1231
:1015CA008A1532220A128A154A3083120313BC0082
:1015DA003C08A900A0300A128A114D250A128A1560
:1015EA00A0300A128A156A220A128A150230831258
:1015FA000313BC003C08A10001300A128A153222EA
:10160A000A128A15223083120313BC003C08A9006F
:10161A006008AB005F08AA006208AD006108AC0070
:10162A00A0300A128A114D250A128A15A0300A1210
:10163A008A156A220A128A15080083120313A10165
:10164A00A10A01300A128A1532220A128A15593061
:10165A0083120313C0004008A900A0300A128A119D
:10166A004D250A128A15A0300A128A156A220A1210
:10167A008A15023083120313C0004008A10001300A
:10168A000A128A1532220A128A1522308312031389
:10169A00C0004008A9003D08AB003C08AA003F086A
:1016AA00AD003E08AC00A0300A128A114D250A127C
:1016BA008A15A0300A128A156A220A128A150800A7
:1016CA0083120313A101A10A01300A128A153222D8
:1016DA000A128A15713083120313C0004008A90048
:1016EA00A0300A128A114D250A128A15A0300A1250
:1016FA008A156A220A128A15023083120313C0005D
:10170A004008A10001300A128A1532220A128A15EB
:10171A00223083120313C0004008A9003D08AB0021
:10172A003C08AA003F08AD003E08AC00A0300A12EF
:10173A008A114D250A128A15A0300A128A156A22C0
:10174A000A128A15080083120313A101A201730861
:10175A0074040319B12BB22BE92BA001A00AC02BE8
:10176A0001300310F30DF40DFF3E031DB62B0130BB
:10177A00F7007708A007F41FC32BC42BB52B013041
:10178A000310A10DA20DFF3E031DC52B740876029E
:10179A00031DD12B73087502031CD42BD52BDC2B0C
:1017AA007308F5027408031CF603F60221140130CB
:1017BA000310F40CF30CFF3E031DDD2B0130A002D5
:1017CA00031DE82BE92BC42B2208F4002108F3009F
:1017DA00080083120313A101A10A01300A128A1513
:1017EA0032220A128A150B3083120313BC003C08FA
:1017FA00A9006008AB005F08AA006208AD00610892
:10180A00AC006408AF006308AE00A0300A128A1167
:10181A004D250A128A15A0300A128A156A220A125E
:10182A008A15023083120313BC003C08A100013060
:10183A000A128A1532220A128A1565308312031394
:10184A00BC003C08A9005E08AB005D08AA00A030F5
:10185A000A128A114D250A128A15A0300A128A150F
:10186A006A220A128A150800F5007A183D2C412CC2
:10187A00831203130814442C8312031308107508E7
:10188A000139F300F30DF30D08087306FB397306EB
:10189A0088007508F3000310730C0139F400F40D85
:1018AA00F40DF40D08087406F739740688007508F3
:1018BA00F30002300310F30CFF3E031D5F2C730884
:1018CA000139F400F40E08087406EF39740688002A
:1018DA007508F30003300310F30CFF3E031D702C50
:1018EA0073080139F400F40EF40D08087406DF39A0
:1018FA0074068800881000008312031388140000FD
:10190A008312031388102130F300F30B8A2C08008A
:10191A000B1D902C912CF12C833081000130F8079B
:10192A000318F90A0030F9077908803AFF00803075
:10193A007F02031DA22C7E307802031CA52CA62C44
:10194A00F02CF801F901013083120313E30703189D
:10195A00E40A0030E4076408803AFF0080307F021E
:10196A00031DB92C3C306302031CBC2CBD2CF02C8B
:10197A0083120313E301E4010130E1070318E20AC9
:10198A000030E2076208803AFF0080307F02031DC0
:10199A00D02C3C306102031CD32CD42CF02C8312A3
:1019AA000313E101E2010130DF070318E00A003006
:1019BA00E0076008803AFF0080307F02031DE72CB1
:1019CA0018305F02031CEA2CEB2CF02C8312031351
:1019DA00DF01E001F02C0B11720883120313FF00E0
:1019EA0071088A00700E8300FE0E7E0E0900031035
:1019FA0083120313460D470DC8004808CE004E084F
:101A0A00031D082D092D122D0030C7000030C60015
:101A1A000030C5000030C400772D4408C8004508CE
:101A2A00C9004608CA004708CB001F300310CB0C78
:101A3A00CA0CC90CC80CFF3E031D1B2D4808CC005C
:101A4A004C08CD00C617FF30C405FF30C505FF306E
:101A5A00C6050030C7059630CE02CE1F352D362D6D
:101A6A00502D4E08803A973E03183C2D3D2D3E2DB1
:101A7A00092D01300310C70CC60CC50CC40CFF3E5F
:101A8A00031D3F2D0130C8004808CE07031D4E2D07
:101A9A004F2D3E2D672D20304E02031C552D562DFD
:101AAA00622D092D0130C8000310C40DC50DC60DE5
:101ABA00C70DC80B592D0130CE024E08031D662DE5
:101ACA00672D572D4D0803196B2D6C2D772DC409E1
:101ADA00C509C609C709C40A0319C50A0319C60AEA
:101AEA000319C70A08007A10831203130810881012
:101AFA000811881108128812831603130810881017
:101B0A000811881108128812343083120313A200B4
:101B1A00F130A100A10B8F2DA20B8F2D03300A12D9
:101B2A008A1501220A128A15073083120313A200AA
:101B3A007C30A100A10B9F2DA20B9F2D000003302A
:101B4A000A128A1501220A128A1507308312031310
:101B5A00A2007C30A100A10BB02DA20BB02D000079
:101B6A0003300A128A1501220A128A1507308312D3
:101B7A000313A2007C30A100A10BC12DA20BC12D21
:101B8A00000002300A128A1501220A128A15073049
:101B9A0083120313A2007C30A100A10BD22DA20B49
:101BAA00D22D000028300A128A1501220A128A153B
:101BBA00413083120313A200ED30A100A10BE32DE3
:101BCA00A20BE32DE82D0C300A128A1501220A1203
:101BDA008A15413083120313A200ED30A100A10B34
:101BEA00F42DA20BF42DF92D01300A128A150122C7
:101BFA000A128A15413083120313A200ED30A100A4
:101C0A00A10B052EA20B052E0A2E06300A128A15E2
:101C1A0001220A128A15413083120313A200ED3001
:101C2A00A100A10B162EA20B162E1B2E0800553052
:101C3A00831603138100A0308B00013085003330F6
:101C4A0086008701880189010130831203139F00EE
:101C5A000E30831603139F000A128A1578250A127A
:101C6A008A1583120313DB01DC01D301D401D501E8
:101C7A00D601D701D801D901DA010A128A15B5218C
:101C8A000A128A15831203131E08CF00D001D1014C
:101C9A00D2015208F6005108F5005008F4004F0826
:101CAA00F30001300A128A1121270A128A157608CE
:101CBA0083120313B1007508B0007408AF007308EB
:101CCA00AE004030AD002330AC00D730AB000A3054
:101CDA00AA000A128A1170230A128A1583120313A0
:101CEA002D08C7002C08C6002B08C5002A08C40006
:101CFA000A128A15FC240A128A158312031345084C
:101D0A00DE004408DD000A128A15EE230A128A153B
:101D1A00831203130618922E932EA92E5330CF0046
:101D2A004F08C1005530D0005008C2005730D100CA
:101D3A005108C3005930D2005208C4005B300A125D
:101D4A008A112B200A128A1583120313061AAE2E41
:101D5A00AF2E072F861AB22EB32E072F5B08FB3E33
:101D6A00CF005C080318013EFF3ED0005E08803AAF
:101D7A00D1005008803A5102031DC52E4F085D025A
:101D8A000318C82EC92EEB2E831203135C08A10078
:101D9A005B08A0005408A3005308A2005608A50037
:101DAA005508A4005808A7005708A6005A08A90011
:101DBA005908A8000A128A150C270A128A158312D2
:101DCA00031307082006FE3920068700831203132F
:101DDA005B08053ECF005C080318013E003ED000B8
:101DEA005008803AD1005E08803A5102031DFF2E46
:101DFA005D084F020318022F032F422E831203138A
:101E0A000710422E0710422E0A128A111028831236
:101E1A0003132308803AF3002708803A7302031D4C
:101E2A00182F2608220203181B2F1C2FA92F8312F2
:101E3A0003132308803AF3006008803A7302031DF3
:101E4A00282F5F08220203182B2F2C2F632F8312AF
:101E5A0003136008803AF3002708803A7302031DCF
:101E6A00382F26085F0203183B2F3C2F432F0130DF
:101E7A0083120313A0000030A100FF2F8312031363
:101E8A0027086006031D4B2F26085F06031D4E2FE9
:101E9A004F2F5E2F6208803AF3002908803A7302B6
:101EAA00031D592F2808610203185C2F5D2F5E2F2E
:101EBA003C2F83120313A001A101FF2F83120313E6
:101ECA0023086006031D6B2F22085F06031D6E2F71
:101EDA006F2F5E2F2508803AF3006208803A73025A
:101EEA00031D792F6108240203187C2F7D2FFF2FF1
:101EFA00831203136008803AF3002708803A7302BA
:101F0A00031D892F26085F0203188C2F8D2F8E2F11
:101F1A003C2F8312031327086006031D962F2608F9
:101F2A005F06031D992F9A2F5E2F6208803AF300ED
:101F3A002908803A7302031DA42F28086102031896
:101F4A00A72FA82F5E2F3C2F831203132308803A52
:101F5A00F3006008803A7302031DB52F5F0822025E
:101F6A000318B82FB92FBA2F3C2F83120313230853
:101F7A006006031DC22F22085F06031DC52FC62F48
:101F8A00D52F2508803AF3006208803A7302031DB0
:101F9A00D02F610824020318D32FD42F5E2F3C2F91
:101FAA006008803AF3002708803A7302031DDF2F86
:101FBA0026085F020318E22FE32FE42F3C2F831237
:101FCA00031327086006031DEC2F26085F06031D6E
:101FDA00EF2FF02F5E2F6208803AF3002508803A2F
:101FEA007302031DFA2F240861020318FD2FFE2F26
:061FFA005E2F3C2F0800E1
:02400E00F13F80
:00000001FF
